:020000040800F2
:10000000C80A00209101000807100008690E0008C6
:10001000051000088F0400087D1200080000000091
:10002000000000000000000000000000171200089F
:1000300091040008000000001512000819120008C1
:10004000AB010008AB010008AB010008AB010008E0
:10005000AB010008AB010008AB010008AB010008D0
:10006000AB010008AB010008AB010008AB010008C0
:10007000AB010008AB010008AB010008AB010008B0
:10008000AB010008AB010008AB010008AB010008A0
:10009000AB010008AB010008AB010008AB01000890
:1000A000AB010008AB010008AB010008AB01000880
:1000B000AB010008AB010008AB010008AB01000870
:1000C000AB010008AB010008AB010008AB01000860
:1000D000AB010008AB010008AB010008AB01000850
:1000E000AB010008AB010008AB01000800F002F80A
:1000F00000F03FF80AA090E8000C82448344AAF183
:100100000107DA4501D100F034F8AFF2090EBAE880
:100110000F0013F0010F18BFFB1A43F0010318473B
:10012000BC170000DC170000103A24BF78C878C163
:10013000FAD8520724BF30C830C144BF04680C60ED
:10014000704700000023002400250026103A28BF35
:1001500078C1FBD8520728BF30C148BF0B60704739
:10016000642900F07D80002070471FB51FBD10B5C9
:1001700010BD00F052F91146FFF7F7FF01F08FF8BC
:1001800000F070F903B4FFF7F2FF03BC00F078F958
:100190000948804709480047FEE7FEE7FEE7FEE71B
:1001A000FEE7FEE7FEE7FEE7FEE7FEE70448054957
:1001B000054A064B704700007B120008ED0000085E
:1001C000C8040020C80A0020C8060020C806002075
:1001D0000FB41CB5074B06AA7B44694600900598EE
:1001E00000F003F90020694600F012F91CBC5DF82C
:1001F00014FB0000350200002DE9F0410E460446D4
:10020000002020622046E168884730B3252805D0C9
:10021000D4E901219047206A401CF2E7E1682046BA
:1002200000278847050018D0A5F14100192802D8F9
:1002300020354FF400673246294620462760FFF7F5
:100240008FFF40B1012804D0F61D26F007060836BE
:10025000D8E7361DD6E72846DAE7206ABDE8F08100
:100260002DE9F0410646002410687529314616A58F
:1002700010D0AFF30080002802DA404213A507E057
:1002800031688A0701D512A502E0490704D511A5F6
:10029000012401E0AFF3008000210A2206F12407C7
:1002A00009E0B0FBF2FCB0FBF2F302FB1C003030C3
:1002B00078541846491C0028F3D123462A46304674
:1002C000BDE8F04100F032B8000000002D00000051
:1002D0002B000000200000004FF0000200B5134684
:1002E00094469646203922BFA0E80C50A0E80C5056
:1002F000B1F12001BFF4F7AF090728BFA0E80C5007
:1003000048BF0CC05DF804EB890028BF40F8042BFF
:1003100008BF704748BF20F8022B11F0804F18BF6C
:1003200000F8012B70477047704770472DE9F04780
:100330000D4699469246044600F124080168880655
:1003400004D5E06921F01001216000E00120A842FD
:1003500001DD471B00E00027A1697A1902EB0900C3
:10036000081AA0612078C00602D42046AFF30080AE
:10037000002608E0D4E901211AF806009047206A17
:10038000401C761C20624E45F4DB2078C0060AD55E
:100390002046AFF3008006E0D4E9012130209047E9
:1003A000206A401C2062381EA7F10107F4DC07E038
:1003B000D4E9012118F805009047206A401C20620A
:1003C000281EA5F10105F3DC2046AFF3008020785C
:1003D000000602D50220BDE8F0870120FBE70000FF
:1003E00001694A1C02610878704700B58FB0CDE9F9
:1003F00001310021059105497944CDE903101146E9
:100400006846FFF7F9FE0FB000BD0000E5FFFFFFF3
:100410000A6802F8010B0A607047754600F02CF874
:10042000AE4605006946534620F00700854618B0E1
:1004300020B5FFF7BBFEBDE820404FF000064FF0AF
:1004400000074FF000084FF0000B21F00701AC4609
:10045000ACE8C009ACE8C009ACE8C009ACE8C00928
:100460008D46704710B50446AFF300802046BDE8C6
:100470001040FFF787BE000000487047640400206A
:1004800001491820ABBEFEE7260002007047FEE7D8
:10049000704772B6FEE700002DE9F84FDFF8B8911B
:1004A0000024A9F1040B23460F2709F1040AABF13C
:1004B000040EC9E00125A5402A40AA427DD1674E1D
:1004C000D1F804C0ACEB0608B44532D014DCBCF162
:1004D000030F3AD009DCBCF1000F2AD0BCF1010FA8
:1004E0001CD0BCF1020F31D11DE0BCF1110F17D0AF
:1004F000BCF1120F2AD119E0B8F5881F19D006DC1B
:10050000B8F5803F15D0B8F5801F1FD111E0B8F5C0
:10051000001F0ED0B8F5041F18D10AE0CB6815E013
:10052000CB681B1D12E0CB6808330FE0CB680C339F
:100530000CE08B682BB1012B4FF0080303D0456111
:1005400004E0042302E0056100E00023FF2A01D853
:10055000064601E000F104064FEA840501D9A5F141
:100560002005D6F8008007FA05FC28EA0C0803FAF3
:1005700005F548EA0508C6F800804D68ED0062D52B
:10058000374DAE6946F00106AE61AD6924F0030651
:1005900005F001050095334D06EB050CDCF808501D
:1005A000A607360F07FA06F825EA0805DFF8B8802F
:1005B000404503D14FF0000817E044E0DFF8AC807D
:1005C000404502D14FF001080FE0DFF8A48040451C
:1005D00002D14FF0020808E0DFF89880404502D1D0
:1005E0004FF0030801E04FF0040808FA06F848EA63
:1005F0000508CCF808804D68D9F80060ED024D463A
:1006000001D5164300E096432E604D68DAF800608D
:10061000AD02554601D5164300E096432E604D6865
:10062000DBF80060AD035D4601D5164300E096435C
:100630002E604D68DEF80060ED03754601D5164367
:1006400000E096432E60641C0D682A46E5407FF466
:1006500031AFBDE8F88F0000080401400000111020
:10066000001002400000014000080140000C014061
:1006700000100140001401400AB1016170470904F3
:10068000FBE7000001488068704700000000002080
:1006900070B5040025D094F83D00002520B984F8F9
:1006A0003C50204600F0B8F8242084F83D00206833
:1006B000016821F0010101602068016841F40041F6
:1006C00001602068016821F40041016000F0F2F946
:1006D0004D4A6168914201D84C4900E04C4988423A
:1006E00001D2012070BD4B492368B0FBF1F15E6877
:1006F00026F03F060E435E606368934206D94FF4CE
:10070000967359434FF47A73B1FBF3F12368491C94
:100710001E6A26F03F06314319626168914210D883
:100720004900401EB0FBF1F2521CC2F30B02042A36
:1007300001D2042022E0B0FBF1F0401CC0F30B001A
:100740001CE0A268F2B301EBC10303EB0116431EE8
:10075000B3FBF6F35B1C43F480431B0549D092B313
:1007600001EBC10202EB0111401EB0FBF1F0401C95
:10077000C0F30B0040F4804040F400402168CA6997
:100780004CF6FF739A431043C861D4E90710014344
:100790002068026822F0C00211430160D4E903011D
:1007A00001432068826848F2FF339A431143816015
:1007B000D4E9050108432168CA6822F0FF0210430A
:1007C000C86001E00EE016E02068016841F0010118
:1007D00001602564202084F83D00256384F83E50A4
:1007E000002070BD01EB4106431EB3FBF6F35B1C1A
:1007F000B3E70120C2E701EB4101401EB0FBF1F07D
:10080000401CC0F30B00B7E7A086010080841E00E7
:1008100000093D0040420F0010B586B00021009154
:1008200001910291039100680F4988421AD10F4C3F
:10083000A06940F00800A061A069694600F00800C6
:100840000490C020009012200190032003900848DB
:10085000FFF722FEE06940F40010E061E06900F477
:100860000010049006B010BD00540040001002407B
:10087000000C014002488168027811448160704791
:1008800000000020074810B5016841F01001016028
:10089000032000F067F80F2000F006F800F024F8BD
:1008A000002010BD0020024070B50D4D04464FF4ED
:1008B0007A712878B1FBF0F00A490968B1FBF0F0D1
:1008C00000F0BEFA48B9102C07D200222146501E73
:1008D00000F028F800206C6070BD012070BD0000A1
:1008E000000000200C0000200C4808B5816941F090
:1008F00001018161816901F001010091C16941F04B
:100900008051C161C06900F0805000900448416886
:1009100021F0E06141F00071416008BD001002402B
:1009200000000140F0B40E4B1B680C46C3F30223D9
:10093000C3F10705042D00D90425191D072901D28B
:10094000002300E0DB1E012606FA05F1491E2140C6
:1009500099409E40761E16403143F0BC00F08FBC9B
:100960000CED00E0064900F0070208684FF6FF03AF
:10097000184040EA0220034A104308607047000014
:100980000CED00E00000FA052DE9F0470F460500E8
:1009900061D0434E306800F00700B84209D2306899
:1009A00020F0070038433060306800F00700B8429C
:1009B00051D128683B4C810712D5400703D56068A8
:1009C00040F4E06060602878000703D5606840F478
:1009D000605060606068A96820F0F00008436060C3
:1009E0002878C00728D06868012810D0216802281C
:1009F00010D0890700292EDA616821F00301014334
:100A00006160FFF73FFE804641F288390DE02168C2
:100A10008903EFE78901EDE7FFF734FEA0EB08015A
:100A2000494502D90320BDE8F0876068696800F095
:100A30000C00B0EB810FEFD1306800F00700B84236
:100A40000BD9306820F0070038433060306800F080
:100A50000700B84201D00120E5E72878400705D516
:100A60006068E96820F4E060084360602878000767
:100A700006D56068296920F4605040EAC1006060D2
:100A800000F028F86168084AC1F30311515CC840BE
:100A90000649086006480068FFF706FF0020C2E725
:100AA0000020024000100240C41800080C00002082
:100AB000040000200448054900684968044AC1F35D
:100AC0000221515CC84070470C0000200010024019
:100AD000D41800080E4A51680E4801F00C03042B8C
:100AE00011D0082B0FD10C48C1F38343C903C05C5C
:100AF0000AD55168084AC1F34041921E515C054A2B
:100B00005043B0FBF1F07047044948437047000080
:100B10000010024000127A00B418000800093D00DD
:100B20002DE9F84F040070D02078C04DC00749D09F
:100B30006868C0F38100012807D06868C0F38100AD
:100B4000022809D16868C00306D52868800339D512
:100B500060680028E7D035E06068B0F5803F0BD0D2
:100B600010B1B0F5A02F11D0286820F48030286093
:100B7000286820F4802002E0286840F48030286053
:100B8000606890B1FFF77EFD06460AE0286840F4F1
:100B900080202860F0E700BFFFF774FD801B642809
:100BA00073D828688003F7D50CE0FFF76BFD064685
:100BB00005E000BFFFF766FD801B6428F0D82868B9
:100BC0008003F7D420789A4E80074FF001094FF048
:100BD000000839D5686810F00C0F07D06868C0F3BA
:100BE0008100022809D16868C00306D428688007FC
:100BF00014D52069012808D110E02069B0B1C6F8E9
:100C00000090FFF73FFD074605E00AE1FFF73AFDD8
:100C1000C01B0228C4D828688007F7D528686169F6
:100C200020F0F80040EAC10028600DE0C6F800801E
:100C3000FFF728FD074604E0FFF724FDC01B02284C
:100C400023D828688007F7D4207800072CD5794866
:100C5000A169D9B1C0F80090FFF714FD074604E080
:100C6000FFF710FDC01B02280FD8686A8007F7D570
:100C700071484FF4FA510068B0FBF1F0009000BFEA
:100C80000098411E0091FAD20EE080E0C0F800808A
:100C9000FFF7F8FC074604E0FFF7F4FCC01B02284E
:100CA00075D8686A8007F7D42078400760D5E8696E
:100CB0000027C00008D4E86940F08050E861E86986
:100CC000012700F0805000905C480168C90513D4EA
:100CD0000168834641F480710160FFF7D3FC8246CE
:100CE00006E000BFFFF7CEFCA0EB0A0064284ED858
:100CF000DBF80000C005F5D5E06801280AD008B18E
:100D0000052813D0286A20F001002862286A20F004
:100D1000040002E0286A40F001002862E06841F225
:100D2000883B98B1FFF7AEFC82460BE0286A40F0A2
:100D300004002862EEE700BFFFF7A4FCA0EB0A0165
:100D400059455AD8286A8007F6D50CE0FFF79AFC77
:100D5000824605E0FFF796FCA0EB0A0159454CD806
:100D6000286A8007F6D41FB1E86920F08050E86156
:100D7000E06988B36968C1F38101022944D002287F
:100D8000C6F8608004D0FFF77DFC044638E034E00C
:100D9000FFF778FC074604E0FFF774FCC01B02284D
:100DA0002BD828688001F7D4206AB0F5803F05D1A0
:100DB0006868A16820F4003008436860D4E908013D
:100DC0000843696821F4741108436860C6F86090AC
:100DD000FFF758FC044606E025E000BFFFF752FC91
:100DE000001B022809D828688001F7D51BE000BF46
:100DF000FFF748FC001B022802D90320BDE8F88F4A
:100E000028688001F4D40EE00128F7D06868226ACF
:100E100000F48031914204D1616A00F4701088427C
:100E200001D00120EAE70020E8E7000000100240BE
:100E300000004242800442420C000020007000404A
:100E400010B5401EB0F1807F01D3012010BD4FF0DE
:100E5000E02460610F21601700F011FA0020A0610A
:100E600007202061002010BDFEE70000114810B5EA
:100E7000816986B041F00801816180690E4C00F003
:100E8000080004904FF4405000901120019003207E
:100E9000039069462046FFF7FFFA0122110320461E
:100EA000FFF7EAFB012251032046FFF7E5FB06B0FE
:100EB00010BD000000100240000C01402DE9F04779
:100EC000164E07464FF48055002229463046FFF75C
:100ED000D3FB00244FF080084FF4005928FA04F2A5
:100EE0003A4049463046FFF7C7FB012229463046C3
:100EF000FFF7C2FB002229463046FFF7BDFB641C0A
:100F0000082CEBDB012229463046FFF7B5FB2946CA
:100F10003046BDE8F0470022FFF7AEBB000C0140B1
:100F200070B501220B4D540321462846FFF7A4FB60
:100F30000122160331462846FFF79EFB0022214678
:100F40002846FFF799FB31462846BDE8704000224D
:100F5000FFF792BB000C014070B50A4D4FF40054EE
:100F6000002221462846FFF787FB0122110328466D
:100F7000FFF782FB21462846BDE870400122FFF7BB
:100F80007BBB0000000C01400D4808B5816941F0B1
:100F900020018161816901F020010091816941F0A6
:100FA00004018161816901F004010091816941F0CE
:100FB00008018161806900F00800009008BD000010
:100FC000001002400D4810B50B4901600C4941600A
:100FD00000214FF480428160C0E9031241618161C8
:100FE000C1610162FFF754FB002803D0BDE8104047
:100FF000FFF74FBA10BD0000005400401000002061
:10100000801A0600FEE7FEE770B5002400212046A6
:1010100000F063F80025002000F0EBF86D1CEDB245
:10102000802DF8D3641CE4B2082CEFD370BD10B54A
:1010300000204FF47A720021491C9142FCD3401CDD
:101040009042F8D3FFF712FFAE2000F0C1F8D52090
:1010500000F0BEF8802000F0BBF8A82000F0B8F83F
:101060003F2000F0B5F8D32000F0B2F8002000F0E7
:10107000AFF8402000F0ACF8A12000F0A9F8C8209B
:1010800000F0A6F8DA2000F0A3F8122000F0A0F893
:10109000812000F09DF8CF2000F09AF8D92000F0D0
:1010A00097F8F12000F094F8DB2000F091F8302060
:1010B00000F08EF8A42000F08BF8A62000F088F84D
:1010C0008D2000F085F8142000F082F8AF2000F0A9
:1010D0007FF8BDE81040FFF797BF10B50C4640F011
:1010E000B00000F075F8102040EA141000F070F81D
:1010F00004F00F00BDE8104000F06AB8F0B5114CE4
:10110000CB0804EB0214104A002102EBC315661849
:101110004718A6F58056491C96F8006EC9B2EE55E0
:101120000829F4D300215B1C02EBC3126318451895
:10113000A3F58053491C93F8083EC9B253550829BA
:10114000F4D3F0BDC21200086400002030B599B09D
:101150000C46054605A16846FFF73AF86A4621465F
:10116000284600F005F819B030BD000025640000E5
:10117000F0B515460E46044601270DE031462046DF
:10118000FFF7BCFF0834E4B26D1C802C04D31FB100
:1011900000241036F6B227462A78002AEED1F0BD98
:1011A0002DE9F041094F0024E0B20021FFF795FF3F
:1011B000002507EBC416705D00F01BF86D1C802D38
:1011C000F9DB641C082CEFDBBDE8F0816400002033
:1011D00010B50446FFF7A4FE7820FFF76FFE00204D
:1011E000FFF76CFE2046FFF769FEBDE81040FFF7F1
:1011F000B3BE10B50446FFF793FE7820FFF75EFEFE
:101200004020FFF75BFE2046FFF758FEBDE8104088
:10121000FFF7A2BE70477047FFF72CBB30B58FB009
:1012200028216846FFF758F814210AA8FFF754F858
:1012300001210804CDE90010002402940225049144
:10124000CDE907504FF4E01009906846FFF768FCBD
:1012500008B172B6FEE70F20CDE90A054FF48060B1
:10126000CDE90C4002210AA80E94FFF78DFB00285F
:1012700001D072B6FEE70FB030BD7047FEE7090738
:10128000090E002804DB00F1E02080F8001470470C
:1012900000F00F0000F1E02080F8141D7047FFF708
:1012A000F1FAFFF7BBFFFFF76FFEFFF78BFEFFF7CB
:1012B000BEFE012211461046FFF748FFFFF770FF00
:1012C000F7E7000000000000000000000000000040
:1012D0000000000000F800000000000000333000B3
:1012E000000000100C06100C0600000000000000BA
:1012F000000040C07840C0784000043F04043F0430
:101300000400007088FC08300000001820FF211E37
:101310000000F008F000E018000000211C031E216E
:101320001E0000F00888700000001E2123241927E9
:10133000211010160E000000000000000000000048
:101340000000000000E01804020000000007182060
:10135000400000020418E0000000004020180700D0
:101360000000404080F0804040000202010F010276
:101370000200000000F0000000000101011F010157
:101380000100000000000000000080B070000000BC
:101390000000000000000000000000010101010148
:1013A00001010000000000000000003030000000DB
:1013B00000000000000080601804006018060100B2
:1013C000000000E010080810E000000F10202010BE
:1013D0000F00001010F8000000000020203F202027
:1013E00000000070080808887000003028242221BE
:1013F0003000003008888848300000182020201174
:101400000E000000C02010F8000000070424243F54
:10141000240000F8088888080800001921202011FD
:101420000E0000E0108888180000000F1120201125
:101430000E0000380808C83808000000003F00000F
:1014400000000070880808887000001C22212122FA
:101450001C0000E010080810E000000031222211FA
:101460000F00000000C0C00000000000003030008D
:10147000000000000080000000000000806000000C
:101480000000000080402010080000010204081045
:101490002000404040404040400004040404040454
:1014A0000400000810204080000000201008040202
:1014B0000100007048080808F00000000030360104
:1014C0000000C030C828E810E000071827242314C3
:1014D0000B000000C038E0000000203C230202277F
:1014E000382008F8888888700000203F20202011CC
:1014F0000E00C03008080808380007182020201007
:10150000080008F808080810E000203F20202010FC
:101510000F0008F88888E8081000203F20202320CA
:10152000180008F88888E8081000203F2000030011
:101530000000C03008080838000007182020221ECC
:10154000020008F808000008F808203F21010121E6
:101550003F20000808F8080800000020203F202055
:10156000000000000808F8080800C08080807F00A4
:10157000000008F888C028180800203F20012638FD
:10158000200008F8080000000000203F2020202054
:10159000300008F8F800F8F80800203F003F003F4E
:1015A000200008F830C00008F808203F2000071885
:1015B0003F00E01008080810E0000F102020201065
:1015C0000F0008F808080808F000203F2101010179
:1015D0000000E01008080810E0000F18242438501C
:1015E0004F0008F8888888887000203F2000030C8E
:1015F0003020007088080808380000382021212297
:101600001C00180808F8080818000000203F2000F7
:10161000000008F808000008F808001F202020201B
:101620001F000878880000C83808000007380E013D
:101630000000F80800F80008F800033C0700073C29
:101640000300081868808068180820302C03032CD9
:1016500030200838C800C83808000000203F2000AB
:10166000000010080808C83808002038262120206B
:101670001800000000FE020202000000007F40404F
:101680004000000C30C000000000000000010638DF
:10169000C00000020202FE000000004040407F0047
:1016A000000000000402020204000000000000002C
:1016B000000000000000000000008080808080802A
:1016C0008080000202040000000000000000000012
:1016D0000000000080808080000000192422222267
:1016E0003F2008F8008080000000003F11202011FA
:1016F0000E000000008080800000000E11202020DD
:101700001100000000808088F800000E11202010D9
:101710003F200000808080800000001F22222222C3
:101720001300008080F0888888180020203F202047
:1017300000000000808080808000006B949494936F
:10174000600008F8008080800000203F2100002019
:101750003F2000809898000000000020203F2020BB
:101760000000000000809898000000C08080807F0A
:10177000000008F8000080808000203F24022D3007
:101780002000000808F8000000000020203F202072
:1017900000008080808080808000203F20003F20EB
:1017A000003F8080008080800000203F21000020DA
:1017B0003F200000808080800000001F202020202B
:1017C0001F00808000808000000080FFA120201189
:1017D0000E000000008080808000000E112020A0FC
:1017E000FF80808080008080800020203F212000BA
:1017F00001000000808080808000003324242424A5
:101800001900008080E0808000000000001F202080
:1018100000008080000000808000001F2020201039
:101820003F20808080000080808000010E3008060C
:10183000010080800080008080800F300C030C301D
:101840000F0000808000808080000020312E0E314B
:101850002000808080000080808080818E7018064B
:10186000010000808080808080000021302C2221B7
:10187000300000000000807C020200000000003FF9
:10188000404000000000FF00000000000000FF00DA
:1018900000000002027C800000000040403F000089
:1018A0000000000601010202040400000000000024
:1018B0000000010202030405060708090A0B0C0DCB
:1018C0000E0F1010000000000000000001020304D1
:1018D000060708090000000001020304FC180008C4
:1018E0000000002010000000280100080C1900086A
:1018F00010000020B80A00004401000801000000A8
:0C190000100000000000000000127A003F
:04000005080000ED02
:00000001FF
